:100000009BC00000B5C00000B3C00000B1C000003C
:10001000AFC00000ADC00000ABC00000A9C0000030
:10002000A7C00000A5C000004DC20000A1C0000094
:100030009FC000009DC000009BC0000099C0000050
:1000400097C00000B4C0000093C0000091C0000041
:100050008FC000008DC000008BC0000089C0000070
:1000600087C0000085C0000083C0000081C0000080
:100070007FC000007DC000007BC0000079C0000090
:1000800077C0000075C0000073C0000071C00000A0
:100090006FC000006DC000006BC0000069C00000B0
:1000A00067C0000065C0000063C0000012011001BD
:1000B00002000008EB03442001000102DC010902F8
:1000C0003E00020100C032090400000102020100EA
:1000D000052400100104240206052406000107057A
:1000E00082030800FF09040100020A00000007055E
:1000F0000402100001070583021000010403090433
:1001000018034400650061006E0020004300610098
:100110006D0065007200610000001C034C0055007A
:1001200046004100200043004400430020004400FA
:1001300065006D006F00000011241FBECFEFDAE0F4
:10014000DEBFCDBF11E0A0E0B1E0EEE6F4E102C019
:1001500005900D92A033B107D9F711E0A0E3B1E00B
:1001600001C01D92A335B107E1F772D00C94350A96
:1001700047CF0895E1E8F0E080818860808380E4E3
:100180009FE19093890080938800808181608083C3
:10019000EFE6F0E08081826080837894089520917A
:1001A00030013091310136952795C90108951F928C
:1001B0000F920FB60F9211240F931F932F933F931B
:1001C0004F935F936F937F938F939F93AF93BF935F
:1001D000EF93FF9308E111E0C80185D4C80105D56C
:1001E0006FD480913001909131010196909331014B
:1001F00080933001FF91EF91BF91AF919F918F91CB
:100200007F916F915F914F913F912F911F910F912E
:100210000F900FBE0F901F90189588E191E092C546
:1002200088E191E03FC584B7877F84BF88E10FB63E
:10023000F89480936000109260000FBE90E080E818
:100240000FB6F89480936100909361000FBE22C1B5
:10025000CF93DF93E8DF88E191E062E371E07ED441
:10026000789482E391E09093500180934F019093B2
:100270004E0180934D0180E091E01DD67BDFC5E10A
:10028000D1E08DDF00D000D0EDB7FEB7D283C183BF
:1002900094838383FED50F900F900F900F90F1CF32
:1002A000DA01923049F0933061F09130F9F4ECEAE0
:1002B000F0E022E130E01EC0EEEBF0E02EE330E0B3
:1002C00019C0813049F0813018F0823079F408C0CB
:1002D000ECEFF0E0849107C0E0E0F1E0849103C02E
:1002E000EAE1F1E08491282F30E004C0E0E0F0E0A2
:1002F00020E030E0ED93FC93C9010895382F282FBA
:100300002CC02093E900231721F4762F942F50E07E
:1003100006C07091EC009091ED005091F00091FFBB
:100320001BC08091EB008E7F8093EB008091ED00ED
:100330008D7F8093ED008091EB0081608093EB00D6
:100340007093EC009093ED005093F0008091EE00DC
:1003500087FD02C080E008952F5F273090F2309330
:10036000E90081E008958091450188239CF404C050
:10037000809144018823B9F08091E80082FFF8CF92
:100380008091E8008B778093E80008958091440184
:10039000882349F08091E80080FFF8CF8091E80041
:1003A0008E778093E80008954091E4005091E50035
:1003B00024E68091EC0080FF24C08091E80080FD5D
:1003C0001EC080914401882311F482E00895853095
:1003D00011F483E008958091EB0085FF02C081E075
:1003E00008958091E4009091E5008417950709F342
:1003F000222311F484E008952150AC01DACF80E08B
:1004000008958091E80082FFDCCFF9CFEF92FF9250
:100410000F931F934AD051D008ED10E0F80180816E
:100420008F77808380818068808380818F7D8083C7
:1004300019BC109244011092400110924201109296
:10044000410180EEE82EF12CF70180818B7F8083C3
:10045000F80180818160808380E060E042E04EDFCF
:10046000E1EEF0E080818E7F8083E2EEF0E080813B
:1004700081608083808188608083F70180818E7FA6
:100480008083F8018081806180831F910F91FF90AC
:10049000EF900895E7EDF0E080818160808384E053
:1004A00082BF81E080934301B1CFE8EDF0E080812D
:1004B0008E7F80831092E20008951092DA001092ED
:1004C000E10008951F920F920FB60F9211242F93FF
:1004D0003F934F935F936F937F938F939F93AF93CC
:1004E000BF93EF93FF938091E10082FF0AC0809158
:1004F000E20082FF06C08091E1008B7F8093E100E3
:10050000DED28091DA0080FF1DC08091D80080FF8C
:1005100019C08091DA008E7F8093DA008091D90033
:1005200080FF0CC080E189BD82E189BD09B400FE75
:10053000FDCF81E080934401C2D204C019BC109267
:10054000440117DE8091E10080FF18C08091E20035
:1005500080FF14C08091E2008E7F8093E200809142
:10056000E20080618093E2008091D80080628093F5
:10057000D80019BC85E080934401A1D28091E100AC
:1005800084FF2DC08091E20084FF29C080E189BDF5
:1005900082E189BD09B400FEFDCF8091D8008F7D36
:1005A0008093D8008091E1008F7E8093E10080915C
:1005B000E2008F7E8093E2008091E2008160809370
:1005C000E20080914001882331F48091E30087FDAF
:1005D00002C081E001C084E08093440170D2809128
:1005E000E10083FF22C08091E20083FF1EC0809162
:1005F000E100877F8093E10082E0809344011092C4
:1006000040018091E1008E7F8093E1008091E200C3
:100610008E7F8093E2008091E20080618093E2000F
:1006200080E060E042E06ADE4AD2FF91EF91BF9144
:10063000AF919F918F917F916F915F914F913F917A
:100640002F910F900FBE0F901F9018959C01409115
:100650004B0150914C014617570718F4F90190E0EF
:1006600045C06115710511F0AB01F8CF8091E8002C
:100670008E778093E80040E050E0F0CF8091440115
:10068000882309F445C0853009F444C08091E8000E
:1006900083FF02C081E008958091E80082FD32C0AE
:1006A0008091E80080FF22C08091F3009091F200D9
:1006B000782F60E0292F30E0262B372B07C081915F
:1006C0008093F100415050402F5F3F4F411551053D
:1006D00019F02830310598F390E02830310509F4FD
:1006E00091E08091E8008E778093E80041155105F4
:1006F00029F6992319F606C080914401882341F018
:10070000853041F08091E80082FFF6CF80E00895C7
:1007100082E0089583E008959C0140914B0150913F
:100720004C014617570718F4F90190E046C06115CF
:10073000710511F0AB01F8CF8091E8008E778093BE
:10074000E80040E050E0F0CF80914401882309F4B4
:1007500047C0853009F446C08091E80083FF02C09D
:1007600081E008958091E80082FD34C08091E80026
:1007700080FF23C08091F3009091F200782F60E019
:10078000292F30E0262B372B08C084918093F1006D
:100790003196415050402F5F3F4F4115510519F0A0
:1007A0002830310590F390E02830310509F491E0CC
:1007B0008091E8008E778093E8004115510521F67D
:1007C000992309F0C1CF06C080914401882341F0EC
:1007D000853041F08091E80082FFF6CF80E00895F7
:1007E00082E0089583E008950F931F93DF93CF93E2
:1007F000CDB7DEB7AC970FB6F894DEBF0FBECDBF56
:10080000E5E4F1E08091F100819321E0ED34F2071D
:10081000C9F703DD8091E80083FF38C1809145016D
:1008200030914601353009F487C0363040F431301C
:10083000C9F1313070F0333009F028C133C038309D
:1008400009F4F6C0393009F405C1363009F01EC18B
:1008500097C0803821F0823809F018C108C0909103
:10086000410180914201882399F0926011C08091EA
:1008700049018F708093E9008091EB0090E025E0C2
:10088000969587952A95E1F7982F91701092E90037
:100890008091E800877F8093E8009093F1001092A8
:1008A000F100D1C0882319F0823009F0EFC090E048
:1008B0008F719070009721F0029709F0E7C00CC08B
:1008C00080914701813009F0E1C01092420133303C
:1008D00069F5809342012AC080914701882331F550
:1008E000209149012F7009F4D1C02093E900809133
:1008F000EB0080FF1BC0333021F48091EB0080625D
:1009000013C08091EB0080618093EB0081E090E068
:1009100002C0880F991F2A95E2F78093EA0010928F
:10092000EA008091EB0088608093EB001092E90070
:100930008091E800877F8AC0882309F0A7C01091C2
:1009400047011F770FB7F8948091E800877F809365
:10095000E80009DD8091E80080FFFCCF8091E30092
:100960008078812B8093E30080688093E3001123DB
:1009700011F482E001C083E0809344010FBF86C080
:100980008058823008F082C08091470190914801E0
:1009900023E08C3D920709F033C083E08C838AE228
:1009A0008B837FB7F894DE0115966EE040E050E04F
:1009B00011E2E62FF0E010935700849140FF03C04E
:1009C00082958F706F5F8F70282F30E08A3018F01B
:1009D000C901C79602C0C901C0968D939D934F5F10
:1009E0005F4F4431510529F77FBF8091E800877F31
:1009F0008093E800CE0103966AE270E027DE12C021
:100A000060914901AE014F5F5F4F4ADCBC01009726
:100A100009F43CC08091E800877F8093E8008981D9
:100A20009A817ADE8091E8008B778093E8002EC06F
:100A3000803861F58091E800877F8093E80080919D
:100A400040018093F1008091E8008E778093E80068
:100A50008ADC1CC08823D1F4909147019230B0F415
:100A60008091E800877F8093E800909340017BDCD1
:100A700080914001882331F48091E30087FD02C01A
:100A800081E001C084E080934401CADB8091E800EA
:100A900083FF0AC08091EB0080628093EB0080911D
:100AA000E800877F8093E800AC960FB6F894DEBF2D
:100AB0000FBECDBFCF91DF911F910F910895089583
:100AC0001F9380914401882361F01091E9001092F6
:100AD000E9008091E80083FF01C086DE1F7010935B
:100AE000E9001F910895FC0180914401843091F543
:100AF00081899289A389B4890097A105B10551F133
:100B000085818093E9008091E80082FF23C04091B5
:100B1000F3002091F200942F80E030E0822B932BA1
:100B2000892B19F46FEF7FEF04C08091F100682FDB
:100B300070E04091F3002091F200942F80E030E0CB
:100B4000822B932B892B41F48091E8008B77809343
:100B5000E80002C06FEF7FEFCB010895FB012EE0AC
:100B6000DB011D922A95E9F723E0238323E436E095
:100B70003187208725E036E0338722879587848771
:100B800008950895FC0180914401843049F58189DC
:100B90009289A389B4890097A105B10509F18181E2
:100BA0008093E9004091F3002091F200942F80E0BF
:100BB00030E0822B932B892BA9F09091E800809153
:100BC000E8008E778093E80095FD0CC0EDDB982F50
:100BD000882349F48091E8008E778093E80003C071
:100BE00092E001C090E0892F0895FC0180914401BA
:100BF000843051F481899289A389B4890097A10531
:100C0000B10511F0CF01BECF0895CF93DF93EC0172
:100C10000BC080914401882319F42EEF3FEF0AC0E6
:100C20008C859D85E2DF4CDF8C859D855CDF9C019A
:100C300097FDEFCFC901DF91CF9108951F93FC017C
:100C4000162F809144018430D9F481899289A38937
:100C5000B4890097A105B10599F081818093E900DD
:100C60008091E80085FD08C08091E8008E77809330
:100C7000E8009ADB882329F41093F10080E001C09A
:100C800082E01F910895282FFB0184859585622FAE
:100C9000D5DF882319F420E030E002C02FEF3FEFCA
:100CA000C90108951F93CF93DF93EC010D96FC01CA
:100CB0008BE0DF011D928A95E9F711E08981181711
:100CC00029F46A817B818C8152E010C08D811817D4
:100CD00031F46E817F81888552E030E008C08985DB
:100CE000181739F56A857B858C8553E030E88823B1
:100CF00011F440E001C044E020E088E090E003C04F
:100D00002F5F880F991F86179707D0F3852F90E0E4
:100D100056E0880F991F5A95E1F760E0311161E0C4
:100D2000682B42602295207F422B812FE7DA8823AF
:100D300029F01F5F173009F0C1CF81E0DF91CF911B
:100D40001F910895CF93DF93EC018091E80083FF1A
:100D50009DC0888190E02091490130914A01281777
:100D6000390709F093C080914601813269F08232DF
:100D700020F4803209F08AC03CC0823209F465C098
:100D8000833209F083C074C080914501813A09F033
:100D90007DC08091E800877F8093E8008091E80023
:100DA00080FFFCCF89899A89AB89BC898093F10047
:100DB000292F3A2F4B2F55272093F1009D014427CF
:100DC00055272093F1008B2F9927AA27BB278093C3
:100DD000F1008D898093F1008E898093F1008F89D5
:100DE0008093F1008091E8008E778093E800BBDA71
:100DF0004DC080914501813209F048C08091E800E2
:100E0000877F8093E8008091E80082FFFCCF80918B
:100E1000F1009091F1002091F1003091F100898B67
:100E20009A8B2B8B3C8B8091F1008D8B8091F10004
:100E30008E8B8091F1008F8B8091E8008B7780936F
:100E4000E80091DACE019DDE21C08091450181321A
:100E5000E9F48091E800877F8093E80084DA80914C
:100E60004701909148019E878D87CE018ADE0EC092
:100E700080914501813251F48091E800877F809311
:100E8000E80071DACE01609147017BDEDF91CF91FE
:100E90000895A0E0B0E0EEE4F7E0C0C2FE013596B0
:100EA0006191719180914F0190915001AF0138D0C3
:100EB0002096E2E0CFC20F931F93CF93DF938C0174
:100EC000E0914F01F0915001838181FF21C0C0E08A
:100ED000D0E00DC0E0914F01F091500120853185A7
:100EE000BF01F9010995892B11F0CFEFDFEFF80170
:100EF00081918F01882371F7E0914F01F0915001AA
:100F0000208531858AE0BF01F9010995892B11F00F
:100F1000CFEFDFEFCE01DF91CF911F910F910895B9
:100F2000ABE0B0E0E5E9F7E069C23C012B015A0112
:100F3000FC0117821682838181FD03C06FEF7FEF72
:100F4000B9C19AE0892E1E010894211C311CF301BD
:100F50002381F20123FD859123FF81912F018823B5
:100F600009F4A5C1853239F423FD859123FF8191D0
:100F70002F01853221F490E0B301B6D1E8CF982F4C
:100F8000FF24EE249924FFE1FF15D0F09B3269F095
:100F90009C3228F4903259F0933291F40EC09D3275
:100FA00049F0903369F441E024C052E0F52A84E02E
:100FB000F82A28C098E0F92A25C0E0E1FE2A22C0DC
:100FC000F7FC29C0892F80538A3070F4F6FE05C0E3
:100FD000989C902C1124980E15C0E89CE02C1124AC
:100FE000E80EF0E2FF2A0EC09E3229F4F6FC5FC143
:100FF00040E4F42A07C09C3619F450E8F52A02C0F0
:10100000983649F4F20123FD959123FF91912F0128
:10101000992309F0B8CF892F8554833018F0805276
:10102000833038F444E050E0A40EB51E5FE35983EA
:101030000FC0933631F0933779F0933509F052C0F1
:101040001FC0F5018081898342E050E0A40EB51EE7
:10105000610101E010E011C0F501C080D180F6FC13
:1010600003C06FEF7FEF02C0692D70E042E050E0F7
:10107000A40EB51EC6012DD18C015FE7F52213C069
:10108000F501C080D180F6FC03C06FEF7FEF02C096
:10109000692D70E042E050E0A40EB51EC6010ED1ED
:1010A0008C0150E8F52AF3FE06C018C080E290E0FB
:1010B000B3011AD1EA948E2D90E008171907B0F306
:1010C0000DC0F601F7FC8591F7FE81916F0190E06C
:1010D000B3010AD1E110EA94015010400115110545
:1010E00081F7E2C0943611F0993661F5F7FE08C039
:1010F000F501208131814281538184E090E00AC072
:10110000F501808191819C01442737FD4095542F42
:1011100082E090E0A80EB91E9FE6F92257FF09C0B1
:1011200050954095309521953F4F4F4F5F4FE0E8E8
:10113000FE2ACA01B901A1012AE030E001D1D82E6E
:10114000D2183FC0953729F41F2D1F7E2AE030E0CA
:101150001DC01F2D197F9F3661F0903720F4983500
:1011600009F0A5C00FC0903739F0983709F09FC03B
:1011700004C028E030E00AC0106114FD146020E1D2
:1011800030E004C014FD166020E132E017FF08C013
:10119000F501608171818281938144E050E008C053
:1011A000F50180819181BC0180E090E042E050E057
:1011B000A40EB51EA101C4D0D82ED2188FE7F82EE8
:1011C000F122F6FE0BC05EEFF522D91438F4F4FEDE
:1011D00007C0F2FC05C08FEEF82202C01D2D01C031
:1011E000192DF4FE0DC0FE01ED0DF11D808180333F
:1011F00019F499EEF92208C01F5FF2FE05C003C082
:101200008F2D867809F01F5F0F2DF3FC13C0F0FEC1
:101210000EC01E1510F09D2C0AC09D2C9E0C911A1C
:101220001E2D05C080E290E0B3015ED01F5F1E1549
:10123000C8F304C01E1510F4E11A01C0EE2404FF27
:101240000EC080E390E0B3014FD002FF1BC001FD50
:1012500003C088E790E00EC088E590E00BC0802FC7
:10126000867881F001FF02C08BE201C080E2F7FCCA
:101270008DE290E0B30138D005C080E390E0B30187
:1012800033D09A94D914C8F3DA94F101ED0DF11D1D
:10129000808190E0B30128D0DD20B1F705C080E265
:1012A00090E0B30121D0EA94EE20C9F750CEF301CB
:1012B00066817781CB012B96E2E1BCC0FC010590F1
:1012C000615070400110D8F7809590958E0F9F1F48
:1012D0000895FC016150704001900110D8F780958D
:1012E00090958E0F9F1F08950F931F93CF93DF93B9
:1012F0008C01EB018B8181FF1BC082FF0DC02E8111
:101300003F818C819D812817390764F4E881F98138
:101310000193F983E88306C0E885F985802F099554
:10132000892B31F48E819F8101969F838E8302C029
:101330000FEF1FEFC801DF91CF911F910F9108951B
:10134000FA01AA27283051F1203181F1E8946F93F6
:101350006E7F6E5F7F4F8F4F9F4FAF4FB1E03ED09C
:10136000B4E03CD0670F781F891F9A1FA11D680F3A
:10137000791F8A1F911DA11D6A0F711D811D911D6D
:10138000A11D20D009F468943F912AE0269F1124E2
:101390003019305D3193DEF6CF010895462F477046
:1013A000405D4193B3E00FD0C9F7F6CF462F4F70A1
:1013B000405D4A3318F0495D31FD4052419302D0FF
:1013C000A9F7EACFB4E0A6959795879577956795A5
:1013D000BA95C9F700976105710508959B01AC01A5
:1013E0000A2E06945795479537952795BA95C9F7CC
:1013F000620F731F841F951FA01D08952F923F92A7
:101400004F925F926F927F928F929F92AF92BF9214
:10141000CF92DF92EF92FF920F931F93CF93DF93C0
:10142000CDB7DEB7CA1BDB0B0FB6F894DEBF0FBE1D
:10143000CDBF09942A88398848885F846E847D846A
:101440008C849B84AA84B984C884DF80EE80FD806C
:101450000C811B81AA81B981CE0FD11D0FB6F894E2
:0E146000DEBF0FBECDBFED010895F894FFCFA3
:10146E00696E697469616C697A696E672074696DF9
:10147E0065723A200025640000031000000410007D
:10148E000002080000000000000000000000000044
:00000001FF
